:10000000CAEF00F00000000000EF00F00000000068
:0A0010000000000000000000F3D71C
:10001C000B6A0A6A096A00500402F4CF09F0F3CFA4
:10002C0008F001500502F4CF0BF0F3CF0AF00050AA
:10003C000502F3500926F4500A22E86A0B220150FB
:10004C000402F3500926F4500A22E86A0B2208C075
:10005C0000F009C001F00AC002F00BC003F012005E
:08006C00BE6ABD98BD9A1200A6
:10007400CB50010F006E016A000E01221AC004F079
:10008400000E056EC9DF060E026E00C004F001C04A
:1000940005F0025005E005320432059EFF0FFAD741
:1000A400040E016E04C000F0015004E0003600901C
:1000B400FF0FFBD7300E0014036E04C000F005C020
:1000C40001F001320032019E01320032019E00C073
:0C00D400BEFF0F0EBD160350BD1212003F
:1000E000000E181802E1280E171830E1176A186A76
:1000F00019800DD01A6ABEDF1A6ABCDF300E1A6E84
:10010000B9DF1A6AB7DF300E1A6EB4DF1ED0000EE8
:10011000161802E1000E1518EDE0000E161802E1A7
:10012000010E1518E9E0000E161802E1020E15186E
:10013000E5E0000E161802E1030E1518E2E0000ECD
:10014000161802E1040E1518DEE004D08AA002D0D1
:06015000154A162A1200F8
:100156000900F5CFE6FF0006FBE10106F9E1120012
:10016600CA80CA92C70ECB6E7EDF010E936E8A6A74
:100176000F0EC16E850ED76EEE0ED66E840ED56E40
:0401860019901200BA
:0A018A009494CA840C0EBD121200FA
:10019400156A166A176A186AE4DFF5DF300E1A6EFC
:1001A40067DFF2A40AD0F294850ED76EEE0ED66EF7
:0E01B400174A182A19B001D091DFF3D7FFD7F0
:020000040030CA
:0E000000000C1F1EFF8381FF0FC00FE00F409A
:00000001FF
