:10000000C3EF00F00000000000EF00F0000000006F
:0A0010000000000000000000F3D71C
:10001C000B6A0A6A096A00500402F4CF09F0F3CFA4
:10002C0008F001500502F4CF0BF0F3CF0AF00050AA
:10003C000502F3500926F4500A22E86A0B220150FB
:10004C000402F3500926F4500A22E86A0B2208C075
:10005C0000F009C001F00AC002F00BC003F012005E
:08006C00BE6ABD98BD9A1200A6
:10007400CB50010F006E016A000E012219C004F07A
:10008400000E056EC9DF060E026E00C004F001C04A
:1000940005F0025005E005320432059EFF0FFAD741
:1000A400040E016E04C000F0015004E0003600901C
:1000B400FF0FFBD7300E0014036E04C000F005C020
:1000C40001F001320032019E01320032019E00C073
:0C00D400BEFF0F0EBD160350BD1212003F
:1000E000174A182A000E181802E1280E171827E1DF
:1000F0000ED0196ABFDF23D0D80E196EBBDF1FD018
:10010000196AB8DF1CD0D80E196EB4DF18D0000EF3
:10011000161802E1000E1518ECE0000E161802E1A8
:10012000010E1518E9E0000E161802E1020E15186E
:10013000E7E0000E161802E1030E1518E4E01200C5
:0A0140009494CA840C0EBD12120044
:10014A00CA80CA92C70ECB6E8CDF010E936E8A6A82
:10015A000F0EC16E850ED76EEE0ED66E840ED56E5C
:02016A00120081
:10016C000900F5CFE6FF0006FBE10106F9E11200FC
:0A017C0081A002D0154A162A1200D5
:10018600156A166A176A186ADDDFD7DF300E196E30
:100196006EDFF2A407D0F294850ED76EEE0ED66E01
:0801A6009CDFE9DFF6D7FFD76B
:020000040030CA
:0E000000000C1F1EFF8381FF0FC00FE00F409A
:00000001FF
