:0400000095EF00F088
:1000080000C016F001C015F0F2A46AD0F294850E73
:10001800D76EEE0ED66E83A020D01750010A1DE1D0
:10002800020E176E83908382838483B604D0010EF8
:10003800186E5BD811D083B804D0040E186E55D84A
:100048000BD083BA04D0070E186E4FD805D083BCE6
:1000580003D00B0E186E49D843D083A220D0175076
:10006800020A1DE1030E176E83808392838483B690
:1000780004D0020E186E39D811D083B804D0050EFA
:10008800186E33D80BD083BA04D0080E186E2DD84A
:1000980005D083BC03D00A0E186E27D821D083A4BC
:1000A8001FD01750030A1CE1010E176E838083824C
:1000B800839483B604D0030E186E17D811D083B872
:1000C80004D0060E186E11D80BD083BA04D0090ECE
:1000D800186E0BD805D083BC03D00C0E186E05D84B
:0A00E80016C000F015C001F0110071
:1000F200016A1850015C0FE2837E050E0B6E0F0E33
:100102000C6EF10E0D6E0D2EFED70C2EFCD70B2EA3
:08011200FAD7012AEED7120012
:10011A000900F5CFE6FF0006FBE10106F9E112004E
:10012A00010E176E780E956E7F0E836E0F0EC16EDE
:10013A00850ED76EEE0ED66E840ED56EFFD7FFD71C
:020000040030CA
:0E000000000C1F1EFF8381FF0FC00FE00F409A
:00000001FF
