:0400000004EF01F018
:1000080000C018F001C017F00CC016F00DC015F0B4
:10001800F2A46BD0F2943C0ED76EB00ED66E807000
:1000280083A020D01950010A1DE1020E196E839099
:100038008382838483B604D0010E1B6E6DD811D0E1
:1000480083B804D0040E1B6E67D80BD083BA04D0D3
:10005800070E1B6E61D805D083BC03D00B0E1B6E38
:100068005BD843D083A220D01950020A1DE1030EA9
:10007800196E83808392838483B604D0020E1B6E2C
:100088004BD811D083B804D0050E1B6E45D80BD0C1
:1000980083BA04D0080E1B6E3FD805D083BC03D0AA
:1000A8000A0E1B6E39D821D083A41FD01950030A19
:1000B8001CE1010E196E83808382839483B604D079
:1000C800030E1B6E29D811D083B804D0060E1B6E00
:1000D80023D80BD083BA04D0090E1B6E1DD805D0C7
:1000E80083BC03D00C0E1B6E17D818C000F017C0C5
:0C00F80001F016C00CF015C00DF0110056
:100104001D0E0C6E910E0D6E0D2EFED70C2EFCD70F
:020114001200D7
:0A01160000000000000000001200CD
:10012000016A1B50015C1CE2838E050E0B6E0F0EE4
:100130000C6EF10E0D6E0D2EFED70C2EFCD70B2E75
:10014000FAD7839E050E0B6E0F0E0C6EF10E0D6E20
:100150000D2EFED70C2EFCD70B2EFAD7012AE1D795
:0201600012008B
:100162000900F5CFE6FF0006FBE10106F9E1120006
:10017200939A93989390939293949396819A819859
:100182008196819481928190BCDFBBDFBADF81824C
:100192008180818ABFDF819AB4DF818ABBDF819A45
:1001A200B0DF818AB7DF819AACDF8190818AB2DFCA
:1001B200819AA7DF818AAEDF819A81928186818AC4
:1001C200A9DF819A9EDF81968180818AA3DF819A4D
:1001D2008190818A9FDF819A94DF818A9BDF819A55
:1001E2008180818A97DF819A8CDF8190818A92DF78
:1001F200819A8186818481828180818A8BDF819A42
:0602020080DF1A801200EB
:10020800010E196E926A806A780E956E7F0E836E63
:100218000F0EC16EA00EF26E3C0ED76EB00ED66EEB
:0A022800820ED56EA2DFFFD7FFD7CC
:020000040030CA
:0E000000000C1F1EFF8381FF0FC00FE00F409A
:00000001FF
